:100000000C9464000C948C000C948C000C948C0068
:100010000C948C000C948C000C948C000C948C0030
:100020000C948C000C948C000C948C000C948C0020
:100030000C948C000C948C000C948C000C948C0010
:100040000C944F0D0C948C000C94BF080C940D096B
:100050000C948C000C948C000C948C000C948C00F0
:100060000C942A060C948C00000000002400270049
:100070002A0000000000250028002B0000000000DE
:1000800023002600290004040404040404040202DA
:100090000202020203030303030301020408102007
:1000A0004080010204081020010204081020000012
:1000B0000007000201000003040600000000000029
:1000C0000000FF021308790A11241FBECFEFD8E009
:1000D000DEBFCDBF12E0A0E0B1E0E0E8F3E202C095
:1000E00005900D92A238B107D9F714E0A2E8B2E06A
:1000F00001C01D92AC32B107E1F710E0C8ECD0E0CE
:1001000004C02297FE010E94BA11C23CD107C9F770
:100110000E94CF0A0C948E000C940000F8940C946A
:10012000BE11FC0112828FEF818310821382089529
:10013000FC018381882331F0662319F48FEF8183DA
:10014000089511820895CF93DF93EC018B8188236A
:1001500019F480E090E013C089818095862388831C
:100160008DE693E06A810E94D9078DE693E068816D
:100170000E945B088DE693E00E949E0890E020E0DC
:1001800030E0892B11F421E030E0C901DF91CF91FB
:100190000895CF93DF93EC016A838DE693E00E948C
:1001A000B3088DE693E06A8141E00E94AF081B82AC
:1001B000882311F081E08B838DE693E00E94EC07A9
:1001C00088838B8190E0DF91CF9108950895089501
:1001D000FC01138212828EE392E091838083089562
:1001E000FC01A081B18118962D913C9119976FEF78
:1001F000F90109950895DC01ED91FC910284F385E4
:10020000E02D40E009950895FC016581862F84600A
:1002100085836C60CF010E94FB000895DC01179676
:100220009C911797491710F0492F415018968C91BF
:100230001897803139F4943029F4E42FF0E0E65B2C
:10024000FD4F04C0E42FF0E0E25BFD4F8081680FBA
:100250006068CD010E94FB000895DC01ED91FC91E6
:100260000284F385E02D41E0099581E090E0089556
:1002700062E00E94FB0080ED97E00E94FE0D089571
:1002800061E00E94FB0080ED97E00E94FE0D089562
:10029000CF93DF93EC01423018F08C8188608C831F
:1002A0004F836887222329F0413019F48C818460C0
:1002B0008C8364E670E080E090E00E94A50D6C8184
:1002C00064FD31C0E881F9810284F385E02DCE011F
:1002D00063E042E0099584E991E10E94FE0DE88126
:1002E000F9810284F385E02DCE0163E042E00995B7
:1002F00084E991E10E94FE0DE881F9810284F38591
:10030000E02DCE0163E042E0099586E990E00E948D
:10031000FE0DE881F9810284F385E02DCE0162E0D3
:1003200042E0099516C06062CE010E94FB0084E99C
:1003300091E10E94FE0D6C816062CE010E94FB0083
:1003400086E990E00E94FE0D6C816062CE010E9401
:10035000FB006C816062CE010E94FB0084E08D8313
:10036000CE010E940401CE010E94400182E08E83F2
:10037000CE0166E00E94FB00CE010E94F000DF91FA
:10038000CF910895DC0181E090E002C0880F991FB1
:100390006A95E2F71C968C931C971A965C934E9381
:1003A0001997ED91FC9111970084F185E02DCD0115
:1003B00060E009950895DF92EF92FF920F931F93EB
:1003C0008C01D62E8EE0E82EF12CE00EF11EF80105
:1003D00062896D29C7010E94A300F80162896095B6
:1003E0006D21C7010E94A3001F910F91FF90EF9014
:1003F000DF900895DC01FC0120E090E070E060FFF8
:1004000002C08589282B9F5F3196943019F075952D
:100410006795F4CF413019F454964C9154971D963A
:100420008C911D97842B282BCD01622F0E94DB011C
:1004300008950F931F93CF93DF93EC01142F062F92
:100440000F70423019F4602F40E00CC070E044E0BF
:10045000759567954A95E1F7412F0E94FA01CE0103
:10046000602F412F0E94FA01DF91CF911F910F91D0
:100470000895FC012485222399F0818592850097B7
:1004800019F4662329F406C0019721F4662311F4B8
:10049000258701C01586CF010E9665850E94A300B1
:1004A00008950F931F93CF93DF938C01EC012E9649
:1004B000CE01F80163850E94C900019719F020E080
:1004C00030E00CC0CE0161E00E949800F801148277
:1004D000CE0160E00E94A30021E030E0C901DF917D
:1004E000CF911F910F910895DF92EF92FF920F939A
:1004F0001F938C01F62EE42ED22E0E945102C801C9
:100500006F2D4E2D2D2D0E9448011F910F91FF90B0
:10051000EF90DF9008952F923F924F925F926F92EB
:100520007F928F929F92AF92BF92CF92DF92EF9283
:10053000FF920F931F93DF93CF93CDB7DEB73C01AC
:10054000962E442E222E0E94E80086E592E0F301CA
:1005500091838083C3010E960E949100F3019386DC
:10056000148615861286118681E090E09C0102C0F7
:10057000220F331F4A94E2F7228BFC0102C0EE0FD8
:10058000FF1F2A94E2F71F01F301238A9C0102C096
:10059000220F331F0A95E2F7248BFC0102C0EE0FF5
:1005A000FF1FEA94E2F77F01F301E58A9C0102C094
:1005B000220F331FCA94E2F7268BFC0102C0EE0F14
:1005C000FF1FAA94E2F75F01F301A78A02C0880F18
:1005D000991F8A94E2F7808FCF91DF911F910F913D
:1005E000FF90EF90DF90CF90BF90AF909F908F9053
:1005F0007F906F905F904F903F902F9008958F92D3
:10060000AF92CF92EF920F9382E892E067E242E0DE
:1006100021E000E0E4E0EE2E75E0C72E56E0A52EC6
:1006200037E0832E0E948B020F91EF90CF90AF9016
:100630008F9008950E94970D6093AD027093AE0263
:100640008093AF029093B00208950E94970D20917D
:10065000AD023091AE024091AF025091B002621BE8
:10066000730B840B950B209135023091360240912B
:10067000370250913802261737074807590710F0FC
:1006800080E0089581E094E060E071E00E943C0D1C
:1006900081E008950F931F9381E00E94430E8C0127
:1006A00081E094E06EE171E00E943C0D81E094E015
:1006B000B8014AE050E00E94200C0E5E124074F433
:1006C0008AE06FEF70E00E94650E8BE06FEF70E0E4
:1006D0000E94650E89E06FEF70E00DC08AE060E077
:1006E00070E00E94650E8BE060E070E00E94650E95
:1006F00089E060E870E00E94650E1F910F910895F7
:10070000CF92DF92EF92FF920F931F936B017C01C8
:1007100002E812E0C8010E943801C8016DE271E0F0
:100720000E943F0CC80160E041E00E940E01C80138
:100730006EE371E00E943F0CC80166E041E00E9458
:100740000E01C801B701A6012AE030E00E94260D83
:10075000C8016BE041E00E940E01C80165E471E050
:100760000E943F0CC092B502D092B602E092B7024E
:10077000F092B8021F910F91FF90EF90DF90CF9011
:100780000895EF92FF920F931F937B018C0181E0FC
:1007900094E0B801A70122E030E00E94290DC801D1
:1007A000B7010E948003E092B502F092B602009376
:1007B000B7021093B8021F910F91FF90EF90089528
:1007C000EF92FF920F931F930E94970D7B018C0174
:1007D00081E094E06BE471E00E943F0C81E094E0E2
:1007E000B801A7012AE030E00E94B80B81E094E054
:1007F0006CE571E00E943F0C4091A7025091A80265
:100800006091A9027091AA0281E094E02AE030E0B0
:100810000E940C0C81E094E062E771E00E943F0CC2
:100820008091A7029091A802A091A902B091AA027A
:10083000B801A701481B590B6A0B7B0B81E094E0C0
:100840002AE030E00E94B80B8091A7029091A802A4
:10085000A091A902B091AA02A8019701281B390B07
:100860004A0B5B0B8091310290913202A0913302CE
:10087000B091340282179307A407B50708F04EC061
:10088000E092A702F092A8020093A9021093AA0294
:1008900080E00E94430E84E690E00E94FE0D80E01E
:1008A0000E94430E7C0181E094E06CE771E00E94BD
:1008B0003F0C6091AB027091AC0281E094E04AE0A1
:1008C00050E00E94200C0027F7FC0095102FC80173
:1008D000B7010E945C1020E030E04AEF5EE30E9426
:1008E00010119B01AC016091B1027091B202809134
:1008F000B3029091B4020E94590F6093B1027093B9
:10090000B2028093B3029093B4028091AB029091B3
:10091000AC0201969093AC028093AB028091AB0243
:100920009091AC02039709F045C081E094E069E939
:1009300071E00E943C0D1092AC021092AB0281E07B
:1009400094E068EC71E00E943F0C6091B1027091FC
:10095000B2028091B3029091B40220E030E040E412
:1009600050E40E94C10FAB01BC0181E094E022E0A1
:1009700030E00E94290D6091B1027091B202809125
:10098000B3029091B40220E030E040E450E40E94D1
:10099000C10FF62FE72F782F692F80E090E0A0E0BD
:1009A000B0E08093B1029093B202A093B302B093EF
:1009B000B4020AC081E094E066ED71E00E943C0D53
:1009C000F0E0E0E076EC62EC2F2F3E2F472F562F21
:1009D000B901CA011F910F91FF90EF900895EF9216
:1009E000FF920F931F930E944A030E9425038823BE
:1009F00099F00E94E0037B018C0120E030E046EC9E
:100A000052EC0E94BD0F882369F00E941A03C801AE
:100A1000B7010E94C10306C081E094E06CE072E07F
:100A20000E943C0D1F910F91FF90EF9008950F933E
:100A30001F9381E094E040E855E260E070E00E949E
:100A400048098AE061E00E94C50E8BE061E00E94E7
:100A5000C50E89E061E00E94C50E80E090E0A6EC42
:100A6000B2EC8093B5029093B602A093B702B09314
:100A7000B80210929C0210929B0210929E02109259
:100A80009D0280E890E09093A00280939F028FEFF8
:100A900090E09093A2028093A1029093A40280938D
:100AA000A3029093A6028093A50202E812E0C80177
:100AB00060E142E020E00E947402C80163E040E08F
:100AC00050E00E94C201C8010E943801C8010E9482
:100AD0004001C8016DE271E00E943F0C1F910F912F
:100AE0000895382F413210F040E042C08091B902A1
:100AF0008823E1F791E09093B9022093BB028FEF36
:100B0000809326031092E10241504093E2024F5F2E
:100B10009093BA028091BA02330F832B8093BA026A
:100B20008091BC02813041F41092BC028091BA02E3
:100B30008093BB0085EC01C085EE8093BC00809162
:100B4000B9028130E1F38091E102841710F4409101
:100B5000E10220E030E00AC0FB01E20FF31FD901FF
:100B6000AF53BD4F8C9180832F5F3F4F2417A0F36D
:100B7000842F08950F931F93582F122F413210F096
:100B800081E04AC08091B9028823E1F782E0809336
:100B9000B9020093BB028FEF809326031092E1020B
:100BA0004093E202A1ECB2E0FB0102C081918D937F
:100BB0008E2F861B8417D0F31092BA028091BA024E
:100BC000550F852B8093BA028091BC02813041F48D
:100BD0001092BC028091BA028093BB0085EC01C0E8
:100BE00085EE8093BC00112321F08091B902823000
:100BF000E1F3809126038F3F11F480E00DC08091D6
:100C00002603803211F482E007C0809126038033EE
:100C100011F084E001C083E01F910F910895482FE7
:100C2000613210F081E008958091B902843011F0B2
:100C300082E0089560930403A3EEB2E0842F9C0148
:100C4000F90102C081918D938E2F841B8617D0F3FA
:100C500080E008951F920F920FB60F9211242F93E8
:100C60003F934F935F936F937F938F939F93AF9334
:100C7000BF93EF93FF938091B90090E0887F9070CD
:100C80008036910509F4F2C081369105CCF58832A1
:100C9000910509F47BC089329105B4F48031910546
:100CA00009F46FC0813191053CF4009709F447C104
:100CB000089709F04FC165C08831910509F466C0F5
:100CC000809709F047C182C08034910509F4A4C01F
:100CD0008134910544F48033910509F482C0C897AA
:100CE00009F038C189C08035910509F489C088357B
:100CF000910509F496C08834910509F02BC1AEC066
:100D00008839910509F413C189399105ECF48837C4
:100D1000910509F4ABC0893791054CF488369105EB
:100D200009F4A4C08037910509F014C19FC0883828
:100D3000910509F4FCC08039910509F49DC0803803
:100D4000910509F007C198C0803B910509F4C6C020
:100D5000813B91054CF4803A910509F49FC0883A93
:100D6000910509F0F7C0BAC0803C910509F4E3C0D1
:100D7000883C910509F4DFC0883B910509F0EAC081
:100D8000C2C08091BA028093BB00CFC09091E102B3
:100D90008091E202981768F49091E102E92FF0E067
:100DA000EF53FD4F80818093BB009F5F9093E102E2
:100DB000BCC08091BB02882309F44BC085ED8093B1
:100DC000BC008091BC0084FDFCCFC2C080E2809357
:100DD000260385ED8093BC008091BC0084FDFCCF90
:100DE000B7C080E38093260385ED8093BC0080919B
:100DF000BC0084FDFCCFACC088E3809326039BC07D
:100E00008091E1029091BB00E82FF0E0EF53FD4F9D
:100E100090838F5F8093E1029091E1028091E202E2
:100E200082C08091E1029091BB00E82FF0E0EF5387
:100E3000FD4F90838F5F8093E1028091BB028823F6
:100E400041F085ED8093BC008091BC0084FDFCCF17
:100E50007FC081E08093BC0284EA6EC085ED809300
:100E6000BC008091BC0084FDFCCF72C083E0809305
:100E7000B9021092250359C080912503803208F0F1
:100E800056C0809125039091BB00E82FF0E0EB5F06
:100E9000FC4F90838F5F8093250347C0809125038B
:100EA000803230F4E0912503F0E0EB5FFC4F1082DC
:100EB00085ED8093BC008091BC0084FDFCCF109236
:100EC000B90260912503E091BF02F091C00285E074
:100ED00093E070E00995109225032DC084E0809383
:100EE000B9021092030310920403E091BD02F09145
:100EF000BE02099580910403882329F481E0809340
:100F000004031092E30290910303E92FF0E0ED5106
:100F1000FD4F80818093BB009F5F9093030390916E
:100F2000030380910403981710F485EC01C085E851
:100F30008093BC000FC085EC8093BC0009C0109268
:100F4000260385ED8093BC008091BC0084FDFCCF1E
:100F50001092B902FF91EF91BF91AF919F918F9144
:100F60007F916F915F914F913F912F910F900FBEA5
:100F70000F901F9018951092B90281E08093BB02E8
:100F80001092BC0282E161E00E94040F83E161E003
:100F90000E94040FE9EBF0E080818E7F80838081E6
:100FA0008D7F808388E48093B80085E48093BC00C3
:100FB000089581E080936C036093490310926A0363
:100FC00010926B0308952091480330E0809147030D
:100FD000281B3109C90108954091470380914803B6
:100FE000481718F02FEF3FEF0AC0E42FF0E0E95D5B
:100FF000FC4F8081282F30E04F5F40934703C901A9
:101000000895E091470380914803E81718F0EFEF47
:10101000FFEF06C0F0E0E95DFC4F8081E82FF0E0D3
:10102000CF01089508951092700310926F0388EE17
:1010300093E0A0E0B0E08093710390937203A093DB
:101040007303B093740386E692E090936E038093EB
:101050006D030895CF92DF92EF92FF920F931F934B
:10106000CF93DF937C016B018A0180916C0388230D
:10107000A1F0C0E0D0E00DC0D701ED91FC91D60108
:10108000AC0FBD1F0190F081E02DC7016C91099557
:101090002196C017D10780F304C0CB01642F0E94B2
:1010A0000F06C801DF91CF911F910F91FF90EF9034
:1010B000DF90CF900895DF93CF930F92CDB7DEB737
:1010C000FC01698380916C038823C9F080916B03D4
:1010D000803238F081E090E09383828320E030E03A
:1010E00015C080916A03E82FF0E0E65BFC4F998120
:1010F00090838F5F80936A0380936B0305C0CE015A
:10110000019661E00E940F0621E030E0C9010F90D6
:10111000CF91DF9108950F93062F809149036AE4E0
:1011200073E040916B0321E00E94BA0510926A03BC
:1011300010926B0310926C030F91089561E00E946E
:101140008B080895413208F040E2862F67E273E091
:101150000E9471051092470380934803089521E08F
:101160000E94A2080895109247031092480310921B
:101170006A0310926B030E94BB07089508951F92A3
:101180000F920FB60F9211242F933F934F938F938B
:101190009F93EF93FF938091C00082FD1DC040910B
:1011A000C6002091B9033091BA032F5F3F4F2F73D0
:1011B00030708091BB039091BC032817390771F000
:1011C000E091B903F091BA03E758FC4F40833093A4
:1011D000BA032093B90302C08091C600FF91EF913A
:1011E0009F918F914F913F912F910F900FBE0F9034
:1011F0001F901895E0910D04F0910E04E05CFF4FF4
:101200008191919120813181821B930B8F7390701A
:10121000892B11F00E94BE0808951F920F920FB6FD
:101220000F9211242F933F938F939F93EF93FF93EC
:101230002091FD033091FE038091FF039091000403
:101240002817390731F48091C1008F7D8093C10048
:1012500014C0E091FF03F0910004E354FC4F20819F
:101260008091FF039091000401968F73907090938A
:1012700000048093FF032093C600FF91EF919F919C
:101280008F913F912F910F900FBE0F901F90189547
:10129000AF92BF92DF92EF92FF920F931F93CF9383
:1012A000DF93EC017A018B01DD24403081EE580799
:1012B00080E0680780E0780711F0DD24D39491E0A6
:1012C000A92EB12CEC89FD89DD2069F0C50108A0AB
:1012D00002C0880F991F0A94E2F7808360E079E0EA
:1012E0008DE390E005C0108260E874E88EE190E044
:1012F000A80197010E949611215030404040504073
:10130000569547953795279580E12030380720F08E
:10131000DD2011F0DD24D6CFE889F9893083EA8910
:10132000FB89208319A2EE89FF89408121E030E00A
:10133000C9010C8C02C0880F991F0A94E2F7482B50
:101340004083EE89FF894081C9010D8C02C0880F5E
:10135000991F0A94E2F7482B4083EE89FF89408168
:10136000C9010E8C02C0880F991F0A94E2F7482B1E
:101370004083EE89FF8980810F8C02C0220F331FCA
:101380000A94E2F7209528232083DF91CF911F91C3
:101390000F91FF90EF90DF90BF90AF900895DC0128
:1013A0001C96ED91FC911D97E05CFF4F21913191CE
:1013B00080819181281B390B2F733070C9010895EA
:1013C000DC011C96ED91FC911D97E05CFF4F2081A4
:1013D0003181E054F040DF01AE5BBF4F8D919C91B5
:1013E00011972817390719F42FEF3FEF07C08D9198
:1013F0009C91E80FF91F8081282F30E0C9010895E2
:10140000DC011C96ED91FC911D97E05CFF4F208163
:101410003181E054F040DF01AE5BBF4F8D919C9174
:1014200011972817390719F42FEF3FEF10C08D914E
:101430009C911197E80FF91F20818D919C91119734
:1014400001968F73907011969C938E9330E0C90132
:101450000895DC0191968C919197882339F05496E8
:10146000ED91FC915597808186FFF9CF91961C9262
:101470000895CF93DF93EC01EE85FF85E05CFF4F8D
:1014800020813181E054F0402F5F3F4F2F73307047
:10149000DF01AE5BBF4F8D919C91119728173907E3
:1014A000D1F3E05CFF4F80819181E054F040E80F80
:1014B000F91F6083EE85FF85E05CFF4F3183208359
:1014C000EE89FF89208181E090E00F8C02C0880FB7
:1014D000991F0A94E2F7282B208381E089A3EC89E5
:1014E000FD8980818064808381E090E0DF91CF91ED
:1014F0000895109204041092030488EE93E0A0E093
:10150000B0E08093050490930604A0930704B09381
:10151000080486E792E0909302048093010489E72F
:1015200093E090930E0480930D048DEB93E09093E1
:10153000100480930F0485EC90E090931204809344
:10154000110484EC90E0909314048093130480ECD5
:1015500090E0909316048093150481EC90E09093B2
:1015600018048093170482EC90E090931A048093FF
:10157000190486EC90E090931C0480931B0484E093
:1015800080931D0483E080931E0487E080931F04F2
:1015900085E08093200481E0809321040895CF9317
:1015A000DF930E94080E0E941705CAEFD8E00E9440
:1015B000EF042097E1F30E94FA08F9CF0895CF9243
:1015C000DF92EF92FF920F931F93CF93DF937C01F3
:1015D0006B018A01C0E0D0E00FC0D6016D916D01B2
:1015E000D701ED91FC910190F081E02DC7010995A3
:1015F000C80FD91F015010400115110571F7CE0118
:10160000DF91CF911F910F91FF90EF90DF90CF90DE
:101610000895EF92FF920F931F938C01DC01ED91DF
:10162000FC910190F081E02D6DE009957C01D801DD
:10163000ED91FC910190F081E02DC8016AE00995DF
:101640009C012E0D3F1DC9011F910F91FF90EF903E
:101650000895CF93DF93EC016115710519F420E033
:1016600030E00FC0DB010D900020E9F71197A61BB9
:10167000B70BE881F9810280F381E02DAD01099576
:101680009C01C901DF91CF9108954F925F927F92A3
:101690008F929F92AF92BF92CF92DF92EF92FF9282
:1016A0000F931F93DF93CF93CDB7DEB7A1970FB6FC
:1016B000F894DEBF0FBECDBF2C01742ECB012230BB
:1016C00008F42AE019A231E2C32ED12CCC0EDD1E83
:1016D000822E9924AA24BB24672D752FA50194017D
:1016E0000E94961179018A01C801B701A5019401F0
:1016F0000E947711472D461B0894C108D1084A3033
:1017000014F4405D01C0495CF6014083E114F1042A
:101710000105110521F07E2C5F2DC801DDCFC2012E
:10172000B6010E94290BA1960FB6F894DEBF0FBE3A
:10173000CDBFCF91DF911F910F91FF90EF90DF9080
:10174000CF90BF90AF909F908F907F905F904F9081
:101750000895DC012115310541F4ED91FC910190D2
:10176000F081E02D642F099508950E94450B08959E
:10177000EF92FF920F931F937C010E94A90B8C01A3
:10178000C7010E94090B9C01200F311FC9011F9145
:101790000F91FF90EF900895CF92DF92EF92FF921A
:1017A0000F931F93CF93DF93EC016A017B01211507
:1017B000310541F4E881F9810190F081E02D642F39
:1017C00009951FC02A303105D1F477FF17C0E88191
:1017D000F9810190F081E02D6DE209958C0144279B
:1017E0005527BA014C195D096E097F09CE012AE01F
:1017F0000E94450B9801280F391F04C02AE00E945F
:10180000450B9C01C901DF91CF911F910F91FF9072
:10181000EF90DF90CF900895EF92FF920F931F9378
:101820007C010E94CC0B8C01C7010E94090B9C011A
:10183000200F311FC9011F910F91FF90EF90089564
:10184000CF92DF92EF92FF920F931F936C017B0177
:101850009A010027F7FC0095102FB801A7010E94FC
:10186000CC0B8C01C6010E94090B080F191FC8017F
:101870001F910F91FF90EF90DF90CF9008950E94FD
:10188000290B08957F928F929F92AF92BF92CF9231
:10189000DF92EF92FF920F931F93CF93DF934C0150
:1018A0007A018B01722ECB01BA01A80197010E9427
:1018B0007311882321F0C40163E272E021C0C0E00B
:1018C000D0E057016801E894D7F8C601B5012FEFC1
:1018D0003FEF4FE75FE70E947311882351F4C60181
:1018E000B5012FEF3FEF4FE75FE70E94BD0F1816DE
:1018F00014F0C1E0D0E0219739F0C40167E272E052
:101900000E94290BEC0193C0C801B7012FEF3FEFF4
:101910004FE75FE40E940C11181654F0C801B7019C
:101920002FEF3FEF4FE75FEC0E94BD0F882324F4B9
:10193000C4016BE272E0E4CFC801B70120E030E0FF
:1019400040E050E00E94BD0F87FD03C0C0E0D0E042
:101950000EC0D401ED91FC910190F081E02DC40105
:101960006DE20995EC0117FB109517F9109520E031
:1019700030E040E05FE3DD240BC0CA01B90120E0A4
:1019800030E040E251E40E94C10F9B01AC01D394CE
:10199000D71498F3C801B7010E94590F5B016C017D
:1019A0000E942E107B018C01C401B801A7012AE01E
:1019B00030E00E94A90BC80FD91F772039F0C4016D
:1019C0006FE272E00E94290BC80FD91FC801B7014E
:1019D0000E945A109B01AC01C601B5010E94580F2C
:1019E00024C020E030E040E251E40E9410117B016D
:1019F0008C010E9429105B016C01CC24B7FCC094BF
:101A0000DC2CC401B601A5012AE030E00E94CC0B19
:101A1000C80FD91FC601B5010E945C109B01AC0123
:101A2000C801B7010E94580F7A947720D1F6CE01F1
:101A3000DF91CF911F910F91FF90EF90DF90CF90AA
:101A4000BF90AF909F908F907F9008950E94420C1E
:101A50000895EF92FF920F931F937C010E94420C16
:101A60008C01C7010E94090B080F191FC8011F91A3
:101A70000F91FF90EF900895EF92FF920F931F93B5
:101A80007C010E94290B8C01C7010E94090B080FE1
:101A9000191FC8011F910F91FF90EF9008951F9299
:101AA0000F920FB60F9211242F933F938F939F9312
:101AB000AF93BF938091270490912804A0912904AB
:101AC000B0912A0430912B040196A11DB11D232F42
:101AD0002D5F2D3720F02D570196A11DB11D2093AC
:101AE0002B048093270490932804A0932904B09397
:101AF0002A048091230490912404A0912504B0919C
:101B000026040196A11DB11D809323049093240403
:101B1000A0932504B0932604BF91AF919F918F911C
:101B20003F912F910F900FBE0F901F9018958FB778
:101B3000F894209127043091280440912904509171
:101B40002A048FBFB901CA0108959B01AC017FB778
:101B5000F8948091230490912404A0912504B091DD
:101B6000260466B5A89B05C06F3F19F00196A11D1C
:101B7000B11D7FBFBA2FA92F982F8827860F911DDF
:101B8000A11DB11D62E0880F991FAA1FBB1F6A9596
:101B9000D1F7BC012DC0FFB7F89480912304909138
:101BA0002404A0912504B0912604E6B5A89B05C0A5
:101BB000EF3F19F00196A11DB11DFFBFBA2FA92F4C
:101BC000982F88278E0F911DA11DB11DE2E0880F6F
:101BD000991FAA1FBB1FEA95D1F7861B970B885E3A
:101BE0009340C8F2215030404040504068517C4FF3
:101BF000211531054105510571F60895019739F018
:101C0000880F991F880F991F02970197F1F7089580
:101C1000789484B5826084BD84B5816084BD85B5C7
:101C2000826085BD85B5816085BDEEE6F0E080818E
:101C300081608083E1E8F0E01082808182608083AF
:101C4000808181608083E0E8F0E080818160808332
:101C5000E1EBF0E0808184608083E0EBF0E0808164
:101C600081608083EAE7F0E0808184608083808106
:101C700082608083808181608083808180688083AE
:101C80001092C1000895982F8E3008F09E509770E2
:101C9000809139028295880F880F807C892B8093F0
:101CA0007C0080917A00806480937A0080917A0031
:101CB00086FDFCCF2091780040917900942F80E040
:101CC00030E0282B392BC90108951F93CF93DF9360
:101CD000182FEB0161E00E94C50E209709F44AC05D
:101CE000CF3FD10509F449C0E12FF0E0E255FF4FA5
:101CF00084918330C1F0843028F4813051F08230F7
:101D0000B1F50CC0863019F1873049F1843079F58E
:101D100014C084B5806884BDC7BD33C084B58062FB
:101D200084BDC8BD2EC080918000806880938000F3
:101D3000D0938900C093880024C080918000806285
:101D400080938000D0938B00C0938A001AC080914A
:101D5000B00080688093B000C093B30012C080913F
:101D6000B00080628093B000C093B4000AC0C03855
:101D7000D1051CF4812F60E002C0812F61E00E9438
:101D8000040FDF91CF911F910895CF93DF93482FD8
:101D900050E0CA0186569F4FFC0134914A575F4F6D
:101DA000FA018491882369F190E0880F991FFC0162
:101DB000E859FF4FA591B491FC01EE58FF4FC59132
:101DC000D491662351F42FB7F8948C91932F90956A
:101DD00089238C93888189230BC0623061F42FB7EB
:101DE000F8948C91932F909589238C938881832BE1
:101DF00088832FBF06C09FB7F8948C91832B8C9358
:101E00009FBFDF91CF910895482F50E0CA018255BE
:101E10009F4FFC012491CA0186569F4FFC0194916B
:101E20004A575F4FFA013491332309F440C022230B
:101E300051F1233071F0243028F42130A1F0223008
:101E400011F514C02630B1F02730C1F02430D9F498
:101E500004C0809180008F7703C0809180008F7DC7
:101E60008093800010C084B58F7702C084B58F7DC9
:101E700084BD09C08091B0008F7703C08091B0000D
:101E80008F7D8093B000E32FF0E0EE0FFF1FEE5840
:101E9000FF4FA591B4912FB7F894662321F48C914C
:101EA0009095892302C08C91892B8C932FBF089524
:101EB0005058BB27AA270ED075C166D130F06BD120
:101EC00020F031F49F3F11F41EF45BC10EF4E09555
:101ED000E7FB51C1E92F77D180F3BA176207730787
:101EE0008407950718F071F49EF58FC10EF4E09504
:101EF0000B2EBA2FA02D0B01B90190010C01CA01C4
:101F0000A0011124FF27591B99F0593F50F4503E6E
:101F100068F11A16F040A22F232F342F4427585F60
:101F2000F3CF469537952795A795F0405395C9F778
:101F30007EF41F16BA0B620B730B840BBAF0915030
:101F4000A1F0FF0FBB1F661F771F881FC2F70EC0CF
:101F5000BA0F621F731F841F48F4879577956795A2
:101F6000B795F7959E3F08F0B3CF9395880F08F08B
:101F70009927EE0F979587950895D9D008F481E0B9
:101F800008950CD00FC107D140F0FED030F021F4FD
:101F90005F3F19F0F0C0511139C1F3C014D198F36B
:101FA0009923C9F35523B1F3951B550BBB27AA27DA
:101FB00062177307840738F09F5F5F4F220F331F4C
:101FC000441FAA1FA9F333D00E2E3AF0E0E830D018
:101FD00091505040E695001CCAF729D0FE2F27D01B
:101FE000660F771F881FBB1F261737074807AB07E9
:101FF000B0E809F0BB0B802DBF01FF2793585F4F5E
:102000002AF09E3F510568F0B6C000C15F3FECF377
:10201000983EDCF3869577956795B795F7959F5F22
:10202000C9F7880F911D9695879597F90895E1E076
:10203000660F771F881FBB1F621773078407BA07D5
:1020400020F0621B730B840BBA0BEE1F88F7E09530
:10205000089504D06894B111D9C00895BCD088F017
:102060009F5790F0B92F9927B751A0F0D1F0660F84
:10207000771F881F991F1AF0BA95C9F712C0B1309F
:1020800081F0C3D0B1E00895C0C0672F782F8827B2
:10209000B85F39F0B93FCCF3869577956795B395DE
:1020A000D9F73EF490958095709561957F4F8F4F4D
:1020B0009F4F0895E89409C097FB3EF49095809552
:1020C000709561957F4F8F4F9F4F9923A9F0F92FFE
:1020D00096E9BB279395F695879577956795B7957C
:1020E000F111F8CFFAF4BB0F11F460FF1BC06F5F62
:1020F0007F4F8F4F9F4F16C0882311F096E911C074
:10210000772321F09EE8872F762F05C0662371F094
:1021100096E8862F70E060E02AF09A95660F771FA8
:10212000881FDAF7880F9695879597F90895990F84
:102130000008550FAA0BE0E8FEEF16161706E80791
:10214000F907C0F012161306E407F50798F0621BB2
:10215000730B840B950B39F40A2661F0232B242B87
:10216000252B21F408950A2609F4A140A6958FEFA6
:10217000811D811D089597F99F6780E870E060E0F8
:1021800008959FEF80EC089500240A941616170610
:1021900018060906089500240A9412161306140658
:1021A00005060895092E0394000C11F4882352F0BB
:1021B000BB0F40F4BF2B11F460FF04C06F5F7F4F73
:1021C0008F4F9F4F089557FD9058440F551F59F05A
:1021D0005F3F71F04795880F97FB991F61F09F3F14
:1021E00079F087950895121613061406551FF2CF3D
:1021F0004695F1DF08C0161617061806991FF1CF8D
:1022000086957105610508940895E894BB276627B3
:102210007727CB0197F908958ADF08F48FEF0895A7
:102220000BD0C0CFB1DF28F0B6DF18F0952309F04E
:10223000A2CFA7CF1124EACFC6DFA0F3959FD1F399
:10224000950F50E0551F629FF001729FBB27F00D64
:10225000B11D639FAA27F00DB11DAA1F649F6627B9
:10226000B00DA11D661F829F2227B00DA11D621F08
:10227000739FB00DA11D621F839FA00D611D221FC2
:10228000749F3327A00D611D231F849F600D211DA6
:10229000822F762F6A2F11249F5750408AF0E1F049
:1022A00088234AF0EE0FFF1FBB1F661F771F881F92
:1022B00091505040A9F79E3F510570F05CCFA6CFDA
:1022C0005F3FECF3983EDCF3869577956795B7957D
:1022D000F795E7959F5FC1F7FE2B880F911D9695A7
:1022E000879597F9089523DF880B990B0895629FCE
:1022F000D001739FF001829FE00DF11D649FE00DFE
:10230000F11D929FF00D839FF00D749FF00D659F5E
:10231000F00D9927729FB00DE11DF91F639FB00D5D
:10232000E11DF91FBD01CF0111240895A1E21A2E6C
:10233000AA1BBB1BFD010DC0AA1FBB1FEE1FFF1F69
:10234000A217B307E407F50720F0A21BB30BE40BB9
:10235000F50B661F771F881F991F1A9469F7609500
:102360007095809590959B01AC01BD01CF010895BA
:10237000EE0FFF1F0590F491E02D0994F894FFCF24
:1023800053686F756C6420726561642074656D704C
:10239000657261747572653A2074727565004C6976
:1023A0006768742052656164696E673B00466973B3
:1023B0006820436F6E74726F6C6C65722100546597
:1023C0006D703A2000432020202000437572726512
:1023D0006E74206D696C6C69733A20004C61737483
:1023E0002072656164696E67206D696C6C69733A0F
:1023F00020005468652073756D3A200054656D7037
:10240000657261747572652072656164696E6720BA
:102410006E756D6265723A20003372642072656178
:1024200064696E672074616B656E2C2072657475CB
:10243000726E696E672074656D7065726174757215
:10244000652076616C75650054656D7065726174A8
:102450007572653A20004D6F72652072656164691E
:102460006E677320746F2062652074616B656E20E7
:102470006265666F72652072657475726E696E67EB
:10248000206176672E2076616C7565004E6F207432
:10249000656D7065726174757265207265616469DD
:1024A0006E67006E616E00696E66006F7666002E64
:1024B00000F40100007017000001000000002D0171
:1024C000DF0A4801E600E700DE0A00401050004045
:1024D0001454000000002D01DF0A7402C201390209
:1024E0001902000000005B082A08E307EC07010856
:1024F000120800000000390ADF0ACF09000AE009CB
:02250000290AA6
:00000001FF
